:020000040000FA
:100000000C945D000C9485000C9485000C94850084
:100010000C9485000C9485000C9485000C9485004C
:100020000C9485000C9485000C9485000C9485003C
:100030000C9485000C9485000C9485000C9485002C
:100040000C94B8020C9485000C9486020C94600207
:100050000C9485000C9485000C9485000C9485000C
:100060000C9485000C94850000000008000201003B
:100070000003040700000000000000000000000072
:10008000250028002B0000000000240027002A0083
:10009000040404040404040402020202020203032E
:1000A0000303030301020408102040800102040836
:1000B0001020010204081020020311241FBECFEFFC
:1000C000D8E0DEBFCDBF11E0A0E0B1E0E8EFFAE09C
:1000D00002C005900D92A239B107D9F722E0A2E93A
:1000E000B1E001C01D92AC33B207E1F710E0CDE5FD
:1000F000D0E004C02197FE010E947405CC35D107E1
:10010000C9F70E9439030C947A050C94000090E022
:10011000FC01EC55FF4F249180579F4FFC018491C7
:10012000882399F090E0880F991FFC01EA57FF4F50
:10013000A591B491FC01E458FF4F859194918FB73C
:10014000F894EC91E22BEC938FBF0895AF92BF929D
:10015000CF92DF92EF92FF920F931F93CF93DF9393
:100160006C017B018B01040F151FEB015E01AE18C2
:10017000BF08C017D10759F06991D601ED91FC91E4
:100180000190F081E02DC6010995892B79F7C50111
:10019000DF91CF911F910F91FF90EF90DF90CF9063
:1001A000BF90AF900895FC01538D448D252F30E012
:1001B000842F90E0821B930B541710F0CF96089574
:1001C00001970895FC01918D828D981761F0A28DA1
:1001D000AE0FBF2FB11D5D968C91928D9F5F9F7367
:1001E000928F90E008958FEF9FEF0895FC01918D1D
:1001F000828D981731F0828DE80FF11D858D90E08A
:1002000008958FEF9FEF0895FC01918D228D892F26
:1002100090E0805C9F4F821B91098F73992708950E
:100220008BE991E00E94040121E0892B09F420E090
:10023000822F089580E090E0892B29F00E94100120
:1002400081110C9400000895FC01A48DA80FB92F12
:10025000B11DA35ABF4F2C91848D90E001968F73EE
:100260009927848FA689B7892C93A089B1898C910D
:10027000837080648C93938D848D981306C002885C
:10028000F389E02D80818F7D80830895EF92FF9226
:100290000F931F93CF93DF93EC0181E0888F9B8DA9
:1002A0008C8D98131AC0E889F989808185FF15C063
:1002B0009FB7F894EE89FF896083E889F989808186
:1002C0008370806480839FBF81E090E0DF91CF9155
:1002D0001F910F91FF90EF900895F62E0B8D10E077
:1002E0000F5F1F4F0F731127E02E8C8D8E110CC0E6
:1002F0000FB607FCFACFE889F989808185FFF5CF31
:10030000CE010E942401F1CFEB8DEC0FFD2FF11DEA
:10031000E35AFF4FF0829FB7F8940B8FEA89FB896D
:1003200080818062CFCFCF93DF93EC01888D8823CB
:10033000B9F0AA89BB89E889F9898C9185FD03C048
:10034000808186FD0DC00FB607FCF7CF8C9185FF2D
:10035000F2CF808185FFEDCFCE010E942401E9CF4D
:10036000DF91CF91089590E0FC01E859FF4F24916F
:10037000FC01EC55FF4F3491FC01E057FF4FE49135
:10038000EE23C9F0222339F0233001F1A8F4213003
:1003900019F1223029F1F0E0EE0FFF1FE458FF4F72
:1003A000A591B4918FB7F894EC91611126C0309566
:1003B0003E233C938FBF08952730A9F02830C9F021
:1003C000243049F7809180008F7D03C080918000A8
:1003D0008F7780938000DFCF84B58F7784BDDBCFAC
:1003E00084B58F7DFBCF8091B0008F778093B00074
:1003F000D2CF8091B0008F7DF9CF3E2BDACF3FB7BF
:10040000F8948091970190919801A0919901B091F1
:100410009A0126B5A89B05C02F3F19F00196A11D92
:10042000B11D3FBFBA2FA92F982F8827BC01CD013E
:10043000620F711D811D911D42E0660F771F881F9D
:10044000991F4A95D1F70895CF93DF93D82FC8E02D
:100450006D2F661F6627661F88E00E94B301DD0FBF
:1004600061E087E00E94B30160E087E00E94B30191
:10047000C15071F7DF91CF910895FF920F931F93B1
:10048000CF93DF938C01C0E8D1E0F801F1908F01A8
:1004900060E084E00E94B3018F2D0E9424028A91C3
:1004A0000E94240261E084E00E94B301F1E0CC37B5
:1004B000DF0759F7DF91CF911F910F91FF900895BA
:1004C0001F920F920FB60F9211242F933F934F93C9
:1004D0005F936F937F938F939F93AF93BF93EF93AC
:1004E000FF938BE991E00E942401FF91EF91BF916E
:1004F000AF919F918F917F916F915F914F913F91BC
:100500002F910F900FBE0F901F9018951F920F9272
:100510000FB60F9211242F938F939F93EF93FF9316
:10052000E091AB01F091AC018081E091B101F091DB
:10053000B20182FD1BC090818091B4018F5F8F73E7
:100540002091B501821741F0E091B401F0E0E55649
:10055000FE4F958F8093B401FF91EF919F918F9102
:100560002F910F900FBE0F901F9018958081F4CFA0
:100570001F920F920FB60F9211242F933F938F93D8
:100580009F93AF93BF938091930190919401A09119
:100590009501B09196013091920123E0230F2D3700
:1005A00058F50196A11DB11D2093920180939301EE
:1005B00090939401A0939501B09396018091970137
:1005C00090919801A0919901B0919A010196A11D75
:1005D000B11D8093970190939801A0939901B093D6
:1005E0009A01BF91AF919F918F913F912F910F9061
:1005F0000FBE0F901F90189526E8230F0296A11D9D
:10060000B11DD2CFEBE9F1E01382128288EE93E0C4
:10061000A0E0B0E084839583A683B78384E891E06B
:100620009183808385EC90E09587848784EC90E0CB
:100630009787868780EC90E0918B808B81EC90E0AF
:10064000938B828B82EC90E0958B848B86EC90E090
:10065000978B868B118E128E138E148EE8E3F2E048
:1006600089E7808384EA818380EB828389E98383BD
:100670000895789484B5826084BD84B5816084BD1A
:1006800085B5826085BD85B5816085BD80916E0030
:10069000816080936E001092810080918100826061
:1006A000809381008091810081608093810080919E
:1006B00080008160809380008091B100846080938D
:1006C000B1008091B00081608093B00080917A0089
:1006D000846080937A0080917A00826080937A00AF
:1006E00080917A00816080937A0080917A0080689E
:1006F00080937A001092C100E091AB01F091AC01BF
:1007000082E08083E091A701F091A8011082E0913E
:10071000A901F091AA018FEC80831092B301E091BE
:10072000AF01F091B00186E08083E091AD01F091DE
:10073000AE01808180618083E091AD01F091AE01D6
:10074000808188608083E091AD01F091AE0180816D
:1007500080688083E091AD01F091AE0180818F7D52
:10076000808384E00E94870086E00E94870087E003
:100770000E94870088E00E948700C12CD12C76015E
:10078000C701B6010E94A7040E947104660F771F7B
:10079000660F771FCB0180509F4F0E943D022AE0D9
:1007A00037ED43EA5BE3C701B6010E9400046B0129
:1007B0007C0120E030E048EF51E40E946C0487FDAA
:1007C000DFCFC0E0D0E088E392E00E943D020E94CB
:1007D000FF016B017C010E94FF016C197D098E09EC
:1007E0009F09683E734081059105A8F3209759F34E
:1007F0000E941001882339F30E940000E4CF505872
:10080000BB27AA270E9417040C9422050E941405F6
:1008100038F00E941B0520F039F49F3F19F426F4AC
:100820000C9411050EF4E095E7FB0C94E204E92F1B
:100830000E94330558F3BA176207730784079507B8
:1008400020F079F4A6F50C946D050EF4E0950B2ECE
:10085000BA2FA02D0B01B90190010C01CA01A00112
:100860001124FF27591B99F0593F50F4503E68F16D
:100870001A16F040A22F232F342F4427585FF3CFAE
:10088000469537952795A795F0405395C9F77EF47F
:100890001F16BA0B620B730B840BBAF09150A1F0C8
:1008A000FF0FBB1F661F771F881FC2F70EC0BA0F4E
:1008B000621F731F841F48F4879577956795B795D6
:1008C000F7959E3F08F0B0CF9395880F08F09927D1
:1008D000EE0F9795879508950E94BE0408F481E075
:1008E00008950E9478046894B1110C946E050895DF
:1008F0000E943B0588F09F5798F0B92F9927B75170
:10090000B0F0E1F0660F771F881F991F1AF0BA95B3
:10091000C9F714C0B13091F00E946D05B1E008959F
:100920000C946D05672F782F8827B85F39F0B93F91
:10093000CCF3869577956795B395D9F73EF4909566
:100940008095709561957F4F8F4F9F4F08950E94BE
:10095000550590F09F3748F4911116F00C946E05F0
:1009600060E070E080E89FEB089526F41B16611D9F
:10097000711D811D0C94E8040C940305990F000867
:10098000550FAA0BE0E8FEEF16161706E807F90761
:10099000C0F012161306E407F50798F0621B730BFC
:1009A000840B950B39F40A2661F0232B242B252B7D
:1009B00021F408950A2609F4A140A6958FEF811D20
:1009C000811D089597F99F6780E870E060E00895C1
:1009D000882371F4772321F09850872B762F07C056
:1009E000662311F499270DC09051862B70E060E0CA
:1009F0002AF09A95660F771F881FDAF7880F969569
:100A0000879597F908959F3F31F0915020F487958D
:100A100077956795B795880F911D9695879597F966
:100A200008959FEF80EC089500240A941616170687
:100A300018060906089500240A94121613061406CF
:100A400005060895092E0394000C11F4882352F032
:100A5000BB0F40F4BF2B11F460FF04C06F5F7F4FEA
:100A60008F4F9F4F089557FD9058440F551F59F0D1
:100A70005F3F71F04795880F97FB991F61F09F3F8B
:100A800079F087950895121613061406551FF2CFB4
:100A90004695F1DF08C0161617061806991FF1CF04
:100AA000869571056105089408950E943B05A0F0A4
:100AB000BEE7B91788F4BB279F3860F41616B11D3E
:100AC000672F782F8827985FF7CF8695779567955A
:100AD000B11D93959639C8F30895E894BB2766270E
:100AE0007727CB0197F90895EE0FFF1F0590F4913A
:100AF000E02D0994F894FFCFFFFFFFFEFFFFFEFEFD
:100B0000FFFEFEFEFEFEFEFEDEFEFEFE9EFEFEFF83
:100B10009AFEFFFF92FFFFFF92FFFFFF92EFFFFEA3
:100B200092CFFEBF928EBFF7928EF7FF9286FFFFA5
:100B30009286FFFF9286F7FF9286E3FF9286C3FFBD
:100B40009286C2FF9286C2FF9286C2F99286C2CF77
:100B50009286C2C99286C2C89286C2889286C2888C
:100B60009286C288FFFFFFFE9286C288FFFFFFFECB
:100B70009286C288F8F4F2F1000000004601A60057
:0A0B8000D30093010401E200F60027
:107E0000112484B714BE81FFF0D085E080938100F7
:107E100082E08093C00088E18093C10086E0809377
:107E2000C20080E18093C4008EE0C9D0259A86E02C
:107E300020E33CEF91E0309385002093840096BBD3
:107E4000B09BFECF1D9AA8958150A9F7CC24DD24C4
:107E500088248394B5E0AB2EA1E19A2EF3E0BF2EE7
:107E6000A2D0813461F49FD0082FAFD0023811F036
:107E7000013811F484E001C083E08DD089C08234E0
:107E800011F484E103C0853419F485E0A6D080C0E4
:107E9000853579F488D0E82EFF2485D0082F10E0AE
:107EA000102F00270E291F29000F111F8ED06801E7
:107EB0006FC0863521F484E090D080E0DECF843638
:107EC00009F040C070D06FD0082F6DD080E0C81688
:107ED00080E7D80618F4F601B7BEE895C0E0D1E017
:107EE00062D089930C17E1F7F0E0CF16F0E7DF06D8
:107EF00018F0F601B7BEE89568D007B600FCFDCFD4
:107F0000A601A0E0B1E02C9130E011968C91119780
:107F100090E0982F8827822B932B1296FA010C0160
:107F200087BEE89511244E5F5F4FF1E0A038BF0790
:107F300051F7F601A7BEE89507B600FCFDCF97BE46
:107F4000E89526C08437B1F42ED02DD0F82E2BD052
:107F50003CD0F601EF2C8F010F5F1F4F84911BD097
:107F6000EA94F801C1F70894C11CD11CFA94CF0C13
:107F7000D11C0EC0853739F428D08EE10CD085E9AC
:107F80000AD08FE07ACF813511F488E018D01DD067
:107F900080E101D065CF982F8091C00085FFFCCF94
:107FA0009093C60008958091C00087FFFCCF809118
:107FB000C00084FD01C0A8958091C6000895E0E648
:107FC000F0E098E1908380830895EDDF803219F02E
:107FD00088E0F5DFFFCF84E1DECF1F93182FE3DFCA
:107FE0001150E9F7F2DF1F91089580E0E8DFEE27F6
:047FF000FF270994CA
:027FFE00040479
:00000001FF
